{
    "contractName": "Points",
    "abi": [
        {
            "inputs": [],
            "stateMutability": "nonpayable",
            "type": "constructor"
        },
        {
            "anonymous": false,
            "inputs": [
                {
                    "indexed": true,
                    "internalType": "address",
                    "name": "owner",
                    "type": "address"
                },
                {
                    "indexed": true,
                    "internalType": "address",
                    "name": "spender",
                    "type": "address"
                },
                {
                    "indexed": false,
                    "internalType": "uint256",
                    "name": "value",
                    "type": "uint256"
                }
            ],
            "name": "Approval",
            "type": "event"
        },
        {
            "anonymous": false,
            "inputs": [
                {
                    "indexed": true,
                    "internalType": "address",
                    "name": "previousOwner",
                    "type": "address"
                },
                {
                    "indexed": true,
                    "internalType": "address",
                    "name": "newOwner",
                    "type": "address"
                }
            ],
            "name": "OwnershipTransferred",
            "type": "event"
        },
        {
            "anonymous": false,
            "inputs": [
                {
                    "indexed": true,
                    "internalType": "address",
                    "name": "from",
                    "type": "address"
                },
                {
                    "indexed": true,
                    "internalType": "address",
                    "name": "to",
                    "type": "address"
                },
                {
                    "indexed": false,
                    "internalType": "uint256",
                    "name": "value",
                    "type": "uint256"
                }
            ],
            "name": "Transfer",
            "type": "event"
        },
        {
            "inputs": [
                {
                    "internalType": "address",
                    "name": "owner",
                    "type": "address"
                },
                {
                    "internalType": "address",
                    "name": "spender",
                    "type": "address"
                }
            ],
            "name": "allowance",
            "outputs": [
                {
                    "internalType": "uint256",
                    "name": "",
                    "type": "uint256"
                }
            ],
            "stateMutability": "view",
            "type": "function"
        },
        {
            "inputs": [
                {
                    "internalType": "address",
                    "name": "spender",
                    "type": "address"
                },
                {
                    "internalType": "uint256",
                    "name": "amount",
                    "type": "uint256"
                }
            ],
            "name": "approve",
            "outputs": [
                {
                    "internalType": "bool",
                    "name": "",
                    "type": "bool"
                }
            ],
            "stateMutability": "nonpayable",
            "type": "function"
        },
        {
            "inputs": [
                {
                    "internalType": "address",
                    "name": "account",
                    "type": "address"
                }
            ],
            "name": "balanceOf",
            "outputs": [
                {
                    "internalType": "uint256",
                    "name": "",
                    "type": "uint256"
                }
            ],
            "stateMutability": "view",
            "type": "function"
        },
        {
            "inputs": [
                {
                    "internalType": "uint256",
                    "name": "amount",
                    "type": "uint256"
                }
            ],
            "name": "burnToken",
            "outputs": [],
            "stateMutability": "nonpayable",
            "type": "function"
        },
        {
            "inputs": [],
            "name": "checkBalance",
            "outputs": [
                {
                    "internalType": "uint256",
                    "name": "",
                    "type": "uint256"
                }
            ],
            "stateMutability": "view",
            "type": "function"
        },
        {
            "inputs": [],
            "name": "decimals",
            "outputs": [
                {
                    "internalType": "uint8",
                    "name": "",
                    "type": "uint8"
                }
            ],
            "stateMutability": "view",
            "type": "function"
        },
        {
            "inputs": [
                {
                    "internalType": "address",
                    "name": "spender",
                    "type": "address"
                },
                {
                    "internalType": "uint256",
                    "name": "subtractedValue",
                    "type": "uint256"
                }
            ],
            "name": "decreaseAllowance",
            "outputs": [
                {
                    "internalType": "bool",
                    "name": "",
                    "type": "bool"
                }
            ],
            "stateMutability": "nonpayable",
            "type": "function"
        },
        {
            "inputs": [
                {
                    "internalType": "address",
                    "name": "spender",
                    "type": "address"
                },
                {
                    "internalType": "uint256",
                    "name": "addedValue",
                    "type": "uint256"
                }
            ],
            "name": "increaseAllowance",
            "outputs": [
                {
                    "internalType": "bool",
                    "name": "",
                    "type": "bool"
                }
            ],
            "stateMutability": "nonpayable",
            "type": "function"
        },
        {
            "inputs": [
                {
                    "internalType": "address",
                    "name": "to",
                    "type": "address"
                },
                {
                    "internalType": "uint256",
                    "name": "amount",
                    "type": "uint256"
                }
            ],
            "name": "mint",
            "outputs": [],
            "stateMutability": "nonpayable",
            "type": "function"
        },
        {
            "inputs": [
                {
                    "internalType": "string",
                    "name": "name",
                    "type": "string"
                },
                {
                    "internalType": "uint256",
                    "name": "cost",
                    "type": "uint256"
                }
            ],
            "name": "mintShopItem",
            "outputs": [],
            "stateMutability": "nonpayable",
            "type": "function"
        },
        {
            "inputs": [],
            "name": "name",
            "outputs": [
                {
                    "internalType": "string",
                    "name": "",
                    "type": "string"
                }
            ],
            "stateMutability": "view",
            "type": "function"
        },
        {
            "inputs": [],
            "name": "owner",
            "outputs": [
                {
                    "internalType": "address",
                    "name": "",
                    "type": "address"
                }
            ],
            "stateMutability": "view",
            "type": "function"
        },
        {
            "inputs": [
                {
                    "internalType": "string",
                    "name": "name",
                    "type": "string"
                }
            ],
            "name": "redeemShopItem",
            "outputs": [],
            "stateMutability": "nonpayable",
            "type": "function"
        },
        {
            "inputs": [],
            "name": "renounceOwnership",
            "outputs": [],
            "stateMutability": "nonpayable",
            "type": "function"
        },
        {
            "inputs": [],
            "name": "symbol",
            "outputs": [
                {
                    "internalType": "string",
                    "name": "",
                    "type": "string"
                }
            ],
            "stateMutability": "view",
            "type": "function"
        },
        {
            "inputs": [],
            "name": "totalSupply",
            "outputs": [
                {
                    "internalType": "uint256",
                    "name": "",
                    "type": "uint256"
                }
            ],
            "stateMutability": "view",
            "type": "function"
        },
        {
            "inputs": [
                {
                    "internalType": "address",
                    "name": "to",
                    "type": "address"
                },
                {
                    "internalType": "uint256",
                    "name": "amount",
                    "type": "uint256"
                }
            ],
            "name": "transfer",
            "outputs": [
                {
                    "internalType": "bool",
                    "name": "",
                    "type": "bool"
                }
            ],
            "stateMutability": "nonpayable",
            "type": "function"
        },
        {
            "inputs": [
                {
                    "internalType": "address",
                    "name": "from",
                    "type": "address"
                },
                {
                    "internalType": "address",
                    "name": "to",
                    "type": "address"
                },
                {
                    "internalType": "uint256",
                    "name": "amount",
                    "type": "uint256"
                }
            ],
            "name": "transferFrom",
            "outputs": [
                {
                    "internalType": "bool",
                    "name": "",
                    "type": "bool"
                }
            ],
            "stateMutability": "nonpayable",
            "type": "function"
        },
        {
            "inputs": [
                {
                    "internalType": "address",
                    "name": "newOwner",
                    "type": "address"
                }
            ],
            "name": "transferOwnership",
            "outputs": [],
            "stateMutability": "nonpayable",
            "type": "function"
        },
        {
            "inputs": [
                {
                    "internalType": "address",
                    "name": "receiver",
                    "type": "address"
                },
                {
                    "internalType": "uint256",
                    "name": "amount",
                    "type": "uint256"
                }
            ],
            "name": "transferTokens",
            "outputs": [],
            "stateMutability": "nonpayable",
            "type": "function"
        },
        {
            "inputs": [
                {
                    "internalType": "string",
                    "name": "itemName",
                    "type": "string"
                }
            ],
            "name": "viewOwner",
            "outputs": [
                {
                    "internalType": "address",
                    "name": "",
                    "type": "address"
                }
            ],
            "stateMutability": "view",
            "type": "function"
        },
        {
            "inputs": [],
            "name": "viewShop",
            "outputs": [
                {
                    "internalType": "string[]",
                    "name": "",
                    "type": "string[]"
                },
                {
                    "internalType": "uint256[]",
                    "name": "",
                    "type": "uint256[]"
                }
            ],
            "stateMutability": "view",
            "type": "function"
        }
    ],
    "bytecode": "60806040523480156200001157600080fd5b50604051806040016040528060058152602001642232b3b2b760d91b815250604051806040016040528060038152602001622223a760e91b81525081600390816200005d91906200018a565b5060046200006c82826200018a565b50505062000089620000836200008f60201b60201c565b62000093565b62000256565b3390565b600580546001600160a01b038381166001600160a01b0319831681179093556040519116919082907f8be0079c531659141344cd1fd0a4f28419497f9722a3daafe3b4186f6b6457e090600090a35050565b634e487b7160e01b600052604160045260246000fd5b600181811c908216806200011057607f821691505b6020821081036200013157634e487b7160e01b600052602260045260246000fd5b50919050565b601f8211156200018557600081815260208120601f850160051c81016020861015620001605750805b601f850160051c820191505b8181101562000181578281556001016200016c565b5050505b505050565b81516001600160401b03811115620001a657620001a6620000e5565b620001be81620001b78454620000fb565b8462000137565b602080601f831160018114620001f65760008415620001dd5750858301515b600019600386901b1c1916600185901b17855562000181565b600085815260208120601f198616915b82811015620002275788860151825594840194600190910190840162000206565b5085821015620002465787850151600019600388901b60f8161c191681555b5050505050600190811b01905550565b61137680620002666000396000f3fe608060405234801561001057600080fd5b50600436106101425760003560e01c80638d5c04ef116100b8578063bec3fa171161007c578063bec3fa17146102a4578063c3a56bb2146102b7578063c71daccb146102ca578063dd62ed3e146102df578063ddf88dfc146102f2578063f2fde38b1461030557600080fd5b80638d5c04ef1461023b5780638da5cb5b1461025157806395d89b4114610276578063a457c2d71461027e578063a9059cbb1461029157600080fd5b8063395093511161010a57806339509351146101bc57806340c10f19146101cf5780636efd2765146101e457806370a08231146101f7578063715018a6146102205780637b47ec1a1461022857600080fd5b806306fdde0314610147578063095ea7b31461016557806318160ddd1461018857806323b872dd1461019a578063313ce567146101ad575b600080fd5b61014f610318565b60405161015c9190610ef8565b60405180910390f35b610178610173366004610f2e565b6103aa565b604051901515815260200161015c565b6002545b60405190815260200161015c565b6101786101a8366004610f58565b6103c4565b6040516012815260200161015c565b6101786101ca366004610f2e565b6103e8565b6101e26101dd366004610f2e565b61040a565b005b6101e26101f2366004611037565b610420565b61018c610205366004611074565b6001600160a01b031660009081526020819052604090205490565b6101e261051e565b6101e261023636600461108f565b610532565b61024361053f565b60405161015c9291906110a8565b6005546001600160a01b03165b6040516001600160a01b03909116815260200161015c565b61014f610673565b61017861028c366004610f2e565b610682565b61017861029f366004610f2e565b6106fd565b6101e26102b2366004610f2e565b61070b565b6101e26102c5366004611143565b610721565b3360009081526020819052604090205461018c565b61018c6102ed366004611188565b6107f4565b61025e610300366004611037565b61081f565b6101e2610313366004611074565b610853565b606060038054610327906111bb565b80601f0160208091040260200160405190810160405280929190818152602001828054610353906111bb565b80156103a05780601f10610375576101008083540402835291602001916103a0565b820191906000526020600020905b81548152906001019060200180831161038357829003601f168201915b5050505050905090565b6000336103b88185856108c9565b60019150505b92915050565b6000336103d28582856109ed565b6103dd858585610a67565b506001949350505050565b6000336103b88185856103fb83836107f4565b61040591906111f5565b6108c9565b610412610c0b565b61041c8282610c65565b5050565b33600090815260208190526040812054905060006006836040516104449190611216565b90815260408051918290036020908101832083830190925281548084526001909201546001600160a01b0316908301529091508210156104cb5760405162461bcd60e51b815260206004820152601b60248201527f596f75206861766520696e73756666696369656e742066756e6473000000000060448201526064015b60405180910390fd5b336006846040516104dc9190611216565b90815260405190819003602001902060010180546001600160a01b039283166001600160a01b03199091161790556005546105199116825161070b565b505050565b610526610c0b565b6105306000610d24565b565b61053c3382610d76565b50565b6060806007600881805480602002602001604051908101604052809291908181526020016000905b82821015610613578382906000526020600020018054610586906111bb565b80601f01602080910402602001604051908101604052809291908181526020018280546105b2906111bb565b80156105ff5780601f106105d4576101008083540402835291602001916105ff565b820191906000526020600020905b8154815290600101906020018083116105e257829003601f168201915b505050505081526020019060010190610567565b5050505091508080548060200260200160405190810160405280929190818152602001828054801561066457602002820191906000526020600020905b815481526020019060010190808311610650575b50505050509050915091509091565b606060048054610327906111bb565b6000338161069082866107f4565b9050838110156106f05760405162461bcd60e51b815260206004820152602560248201527f45524332303a2064656372656173656420616c6c6f77616e63652062656c6f77604482015264207a65726f60d81b60648201526084016104c2565b6103dd82868684036108c9565b6000336103b8818585610a67565b61071533826103aa565b506105193383836103c4565b610729610c0b565b60408051808201825282815260006020820152905160069061074c908590611216565b9081526040516020918190038201902082518155910151600191820180546001600160a01b0319166001600160a01b039092169190911790556007805491820181556000527fa66cc928b5edb82af9bd49922954155ab7b0942694bea4ce44661d9a8736c688016107bd8382611280565b50600880546001810182556000919091527ff3f7a9fe364faab93b216da50a3214154f22a0a2b415b23a84c8169e8b636ee3015550565b6001600160a01b03918216600090815260016020908152604080832093909416825291909152205490565b60006006826040516108319190611216565b908152604051908190036020019020600101546001600160a01b031692915050565b61085b610c0b565b6001600160a01b0381166108c05760405162461bcd60e51b815260206004820152602660248201527f4f776e61626c653a206e6577206f776e657220697320746865207a65726f206160448201526564647265737360d01b60648201526084016104c2565b61053c81610d24565b6001600160a01b03831661092b5760405162461bcd60e51b8152602060048201526024808201527f45524332303a20617070726f76652066726f6d20746865207a65726f206164646044820152637265737360e01b60648201526084016104c2565b6001600160a01b03821661098c5760405162461bcd60e51b815260206004820152602260248201527f45524332303a20617070726f766520746f20746865207a65726f206164647265604482015261737360f01b60648201526084016104c2565b6001600160a01b0383811660008181526001602090815260408083209487168084529482529182902085905590518481527f8c5be1e5ebec7d5bd14f71427d1e84f3dd0314c0f7b2291e5b200ac8c7c3b925910160405180910390a3505050565b60006109f984846107f4565b90506000198114610a615781811015610a545760405162461bcd60e51b815260206004820152601d60248201527f45524332303a20696e73756666696369656e7420616c6c6f77616e636500000060448201526064016104c2565b610a6184848484036108c9565b50505050565b6001600160a01b038316610acb5760405162461bcd60e51b815260206004820152602560248201527f45524332303a207472616e736665722066726f6d20746865207a65726f206164604482015264647265737360d81b60648201526084016104c2565b6001600160a01b038216610b2d5760405162461bcd60e51b815260206004820152602360248201527f45524332303a207472616e7366657220746f20746865207a65726f206164647260448201526265737360e81b60648201526084016104c2565b6001600160a01b03831660009081526020819052604090205481811015610ba55760405162461bcd60e51b815260206004820152602660248201527f45524332303a207472616e7366657220616d6f756e7420657863656564732062604482015265616c616e636560d01b60648201526084016104c2565b6001600160a01b03848116600081815260208181526040808320878703905593871680835291849020805487019055925185815290927fddf252ad1be2c89b69c2b068fc378daa952ba7f163c4a11628f55a4df523b3ef910160405180910390a3610a61565b6005546001600160a01b031633146105305760405162461bcd60e51b815260206004820181905260248201527f4f776e61626c653a2063616c6c6572206973206e6f7420746865206f776e657260448201526064016104c2565b6001600160a01b038216610cbb5760405162461bcd60e51b815260206004820152601f60248201527f45524332303a206d696e7420746f20746865207a65726f20616464726573730060448201526064016104c2565b8060026000828254610ccd91906111f5565b90915550506001600160a01b038216600081815260208181526040808320805486019055518481527fddf252ad1be2c89b69c2b068fc378daa952ba7f163c4a11628f55a4df523b3ef910160405180910390a35050565b600580546001600160a01b038381166001600160a01b0319831681179093556040519116919082907f8be0079c531659141344cd1fd0a4f28419497f9722a3daafe3b4186f6b6457e090600090a35050565b6001600160a01b038216610dd65760405162461bcd60e51b815260206004820152602160248201527f45524332303a206275726e2066726f6d20746865207a65726f206164647265736044820152607360f81b60648201526084016104c2565b6001600160a01b03821660009081526020819052604090205481811015610e4a5760405162461bcd60e51b815260206004820152602260248201527f45524332303a206275726e20616d6f756e7420657863656564732062616c616e604482015261636560f01b60648201526084016104c2565b6001600160a01b0383166000818152602081815260408083208686039055600280548790039055518581529192917fddf252ad1be2c89b69c2b068fc378daa952ba7f163c4a11628f55a4df523b3ef910160405180910390a3505050565b60005b83811015610ec3578181015183820152602001610eab565b50506000910152565b60008151808452610ee4816020860160208601610ea8565b601f01601f19169290920160200192915050565b602081526000610f0b6020830184610ecc565b9392505050565b80356001600160a01b0381168114610f2957600080fd5b919050565b60008060408385031215610f4157600080fd5b610f4a83610f12565b946020939093013593505050565b600080600060608486031215610f6d57600080fd5b610f7684610f12565b9250610f8460208501610f12565b9150604084013590509250925092565b634e487b7160e01b600052604160045260246000fd5b600082601f830112610fbb57600080fd5b813567ffffffffffffffff80821115610fd657610fd6610f94565b604051601f8301601f19908116603f01168101908282118183101715610ffe57610ffe610f94565b8160405283815286602085880101111561101757600080fd5b836020870160208301376000602085830101528094505050505092915050565b60006020828403121561104957600080fd5b813567ffffffffffffffff81111561106057600080fd5b61106c84828501610faa565b949350505050565b60006020828403121561108657600080fd5b610f0b82610f12565b6000602082840312156110a157600080fd5b5035919050565b6000604082016040835280855180835260608501915060608160051b8601019250602080880160005b838110156110ff57605f198887030185526110ed868351610ecc565b955093820193908201906001016110d1565b50508584038187015286518085528782019482019350915060005b828110156111365784518452938101939281019260010161111a565b5091979650505050505050565b6000806040838503121561115657600080fd5b823567ffffffffffffffff81111561116d57600080fd5b61117985828601610faa565b95602094909401359450505050565b6000806040838503121561119b57600080fd5b6111a483610f12565b91506111b260208401610f12565b90509250929050565b600181811c908216806111cf57607f821691505b6020821081036111ef57634e487b7160e01b600052602260045260246000fd5b50919050565b808201808211156103be57634e487b7160e01b600052601160045260246000fd5b60008251611228818460208701610ea8565b9190910192915050565b601f82111561051957600081815260208120601f850160051c810160208610156112595750805b601f850160051c820191505b8181101561127857828155600101611265565b505050505050565b815167ffffffffffffffff81111561129a5761129a610f94565b6112ae816112a884546111bb565b84611232565b602080601f8311600181146112e357600084156112cb5750858301515b600019600386901b1c1916600185901b178555611278565b600085815260208120601f198616915b82811015611312578886015182559484019460019091019084016112f3565b50858210156113305787850151600019600388901b60f8161c191681555b5050505050600190811b0190555056fea264697066735822122051ad9d29702ed1714d3a0d5bbac2007e525fb38f712997fa019b04492704affb64736f6c63430008130033",
    "sourcePath": "d:/Documents/Code/Solidity/AVAX/contracts/Points.sol",
    "compiler": {
        "name": "solc",
        "version": "0.8.19+commit.7dd6d404"
    },
    "functionHashes": {
        "allowance(address,address)": "dd62ed3e",
        "approve(address,uint256)": "095ea7b3",
        "balanceOf(address)": "70a08231",
        "burnToken(uint256)": "7b47ec1a",
        "checkBalance()": "c71daccb",
        "decimals()": "313ce567",
        "decreaseAllowance(address,uint256)": "a457c2d7",
        "increaseAllowance(address,uint256)": "39509351",
        "mint(address,uint256)": "40c10f19",
        "mintShopItem(string,uint256)": "c3a56bb2",
        "name()": "06fdde03",
        "owner()": "8da5cb5b",
        "redeemShopItem(string)": "6efd2765",
        "renounceOwnership()": "715018a6",
        "symbol()": "95d89b41",
        "totalSupply()": "18160ddd",
        "transfer(address,uint256)": "a9059cbb",
        "transferFrom(address,address,uint256)": "23b872dd",
        "transferOwnership(address)": "f2fde38b",
        "transferTokens(address,uint256)": "bec3fa17",
        "viewOwner(string)": "ddf88dfc",
        "viewShop()": "8d5c04ef"
    },
    "gasEstimates": {
        "creation": {
            "codeDepositCost": "996400",
            "executionCost": "infinite",
            "totalCost": "infinite"
        },
        "external": {
            "allowance(address,address)": "infinite",
            "approve(address,uint256)": "24651",
            "balanceOf(address)": "2629",
            "burnToken(uint256)": "50881",
            "checkBalance()": "2429",
            "decimals()": "289",
            "decreaseAllowance(address,uint256)": "27039",
            "increaseAllowance(address,uint256)": "infinite",
            "mint(address,uint256)": "53014",
            "mintShopItem(string,uint256)": "infinite",
            "name()": "infinite",
            "owner()": "2365",
            "redeemShopItem(string)": "infinite",
            "renounceOwnership()": "infinite",
            "symbol()": "infinite",
            "totalSupply()": "2349",
            "transfer(address,uint256)": "51161",
            "transferFrom(address,address,uint256)": "infinite",
            "transferOwnership(address)": "28468",
            "transferTokens(address,uint256)": "infinite",
            "viewOwner(string)": "infinite",
            "viewShop()": "infinite"
        }
    }
}